{
  "contractName": "Tree",
  "abi": [
    {
      "inputs": [],
      "stateMutability": "nonpayable",
      "type": "constructor"
    },
    {
      "anonymous": false,
      "inputs": [
        {
          "indexed": true,
          "internalType": "address",
          "name": "from",
          "type": "address"
        },
        {
          "indexed": true,
          "internalType": "address",
          "name": "to",
          "type": "address"
        },
        {
          "indexed": false,
          "internalType": "uint256",
          "name": "amount",
          "type": "uint256"
        },
        {
          "indexed": false,
          "internalType": "uint256",
          "name": "Count",
          "type": "uint256"
        }
      ],
      "name": "Payments",
      "type": "event"
    },
    {
      "anonymous": false,
      "inputs": [
        {
          "indexed": true,
          "internalType": "address",
          "name": "member",
          "type": "address"
        },
        {
          "indexed": true,
          "internalType": "address",
          "name": "inviter",
          "type": "address"
        },
        {
          "indexed": false,
          "internalType": "address",
          "name": "subscription",
          "type": "address"
        },
        {
          "indexed": false,
          "internalType": "uint256",
          "name": "Count",
          "type": "uint256"
        }
      ],
      "name": "Summary",
      "type": "event"
    },
    {
      "inputs": [],
      "name": "Count",
      "outputs": [
        {
          "internalType": "uint256",
          "name": "",
          "type": "uint256"
        }
      ],
      "stateMutability": "view",
      "type": "function",
      "constant": true
    },
    {
      "inputs": [],
      "name": "top",
      "outputs": [
        {
          "internalType": "address payable",
          "name": "",
          "type": "address"
        }
      ],
      "stateMutability": "view",
      "type": "function",
      "constant": true
    },
    {
      "inputs": [
        {
          "internalType": "address",
          "name": "",
          "type": "address"
        }
      ],
      "name": "tree",
      "outputs": [
        {
          "internalType": "address payable",
          "name": "inviter",
          "type": "address"
        },
        {
          "internalType": "address payable",
          "name": "self",
          "type": "address"
        }
      ],
      "stateMutability": "view",
      "type": "function",
      "constant": true
    },
    {
      "inputs": [
        {
          "internalType": "address payable",
          "name": "_inviter",
          "type": "address"
        },
        {
          "internalType": "address payable",
          "name": "_subscription",
          "type": "address"
        }
      ],
      "name": "enter",
      "outputs": [],
      "stateMutability": "payable",
      "type": "function",
      "payable": true
    },
    {
      "inputs": [
        {
          "internalType": "address payable",
          "name": "_member",
          "type": "address"
        }
      ],
      "name": "pay",
      "outputs": [],
      "stateMutability": "payable",
      "type": "function",
      "payable": true
    }
  ],
  "bytecode": "0x60806040526000805534801561001457600080fd5b5060405180604001604052803373ffffffffffffffffffffffffffffffffffffffff1681526020013373ffffffffffffffffffffffffffffffffffffffff16815250600160003373ffffffffffffffffffffffffffffffffffffffff1673ffffffffffffffffffffffffffffffffffffffff16815260200190815260200160002060008201518160000160006101000a81548173ffffffffffffffffffffffffffffffffffffffff021916908373ffffffffffffffffffffffffffffffffffffffff16021790555060208201518160010160006101000a81548173ffffffffffffffffffffffffffffffffffffffff021916908373ffffffffffffffffffffffffffffffffffffffff16021790555090505033600260006101000a81548173ffffffffffffffffffffffffffffffffffffffff021916908373ffffffffffffffffffffffffffffffffffffffff160217905550610947806101766000396000f3fe608060405260043610610067576000357c0100000000000000000000000000000000000000000000000000000000900480630c11dedd1461006c5780635d4b8378146100b057806393a8333e14610114578063f72403621461013f578063fe6dcdba14610203575b600080fd5b6100ae6004803603602081101561008257600080fd5b81019080803573ffffffffffffffffffffffffffffffffffffffff16906020019092919050505061025a565b005b610112600480360360408110156100c657600080fd5b81019080803573ffffffffffffffffffffffffffffffffffffffff169060200190929190803573ffffffffffffffffffffffffffffffffffffffff16906020019092919050505061038a565b005b34801561012057600080fd5b5061012961085f565b6040518082815260200191505060405180910390f35b34801561014b57600080fd5b5061018e6004803603602081101561016257600080fd5b81019080803573ffffffffffffffffffffffffffffffffffffffff169060200190929190505050610865565b604051808373ffffffffffffffffffffffffffffffffffffffff1673ffffffffffffffffffffffffffffffffffffffff1681526020018273ffffffffffffffffffffffffffffffffffffffff1673ffffffffffffffffffffffffffffffffffffffff1681526020019250505060405180910390f35b34801561020f57600080fd5b506102186108c9565b604051808273ffffffffffffffffffffffffffffffffffffffff1673ffffffffffffffffffffffffffffffffffffffff16815260200191505060405180910390f35b600080815480929190600101919050555060008173ffffffffffffffffffffffffffffffffffffffff166108fc349081150290604051600060405180830381858888f19350505050905080610317576040517f08c379a00000000000000000000000000000000000000000000000000000000081526004018080602001828103825260148152602001807f4661696c656420746f2073656e6420457468657200000000000000000000000081525060200191505060405180910390fd5b8173ffffffffffffffffffffffffffffffffffffffff163373ffffffffffffffffffffffffffffffffffffffff167ff19328fe5783dfe256066fba6d6aaab1f41e3c5331940024887c1ef8f080d91d34600054604051808381526020018281526020019250505060405180910390a35050565b6605b8495616a000341015610407576040517f08c379a000000000000000000000000000000000000000000000000000000000815260040180806020018281038252601f8152602001807f4d757374206265206174206c6561737420302e3030313631302065746865720081525060200191505060405180910390fd5b600073ffffffffffffffffffffffffffffffffffffffff16600160003373ffffffffffffffffffffffffffffffffffffffff1673ffffffffffffffffffffffffffffffffffffffff16815260200190815260200160002060000160009054906101000a900473ffffffffffffffffffffffffffffffffffffffff1673ffffffffffffffffffffffffffffffffffffffff16146104ee576040517f08c379a00000000000000000000000000000000000000000000000000000000081526004018080602001828103825260228152602001806108f06022913960400191505060405180910390fd5b8173ffffffffffffffffffffffffffffffffffffffff16600160008473ffffffffffffffffffffffffffffffffffffffff1673ffffffffffffffffffffffffffffffffffffffff16815260200190815260200160002060010160009054906101000a900473ffffffffffffffffffffffffffffffffffffffff1673ffffffffffffffffffffffffffffffffffffffff16146105f1576040517f08c379a00000000000000000000000000000000000000000000000000000000081526004018080602001828103825260128152602001807f496e7669746572206d757374206578697374000000000000000000000000000081525060200191505060405180910390fd5b600080815480929190600101919050555060405180604001604052808373ffffffffffffffffffffffffffffffffffffffff1681526020013373ffffffffffffffffffffffffffffffffffffffff16815250600160003373ffffffffffffffffffffffffffffffffffffffff1673ffffffffffffffffffffffffffffffffffffffff16815260200190815260200160002060008201518160000160006101000a81548173ffffffffffffffffffffffffffffffffffffffff021916908373ffffffffffffffffffffffffffffffffffffffff16021790555060208201518160010160006101000a81548173ffffffffffffffffffffffffffffffffffffffff021916908373ffffffffffffffffffffffffffffffffffffffff16021790555090505060008173ffffffffffffffffffffffffffffffffffffffff166108fc349081150290604051600060405180830381858888f193505050509050806107bf576040517f08c379a00000000000000000000000000000000000000000000000000000000081526004018080602001828103825260148152602001807f4661696c656420746f2073656e6420457468657200000000000000000000000081525060200191505060405180910390fd5b8273ffffffffffffffffffffffffffffffffffffffff163373ffffffffffffffffffffffffffffffffffffffff167f9401c4696aa930450b5eb88e4f708151abe4e3436bad9da4c0544e05ec06204584600054604051808373ffffffffffffffffffffffffffffffffffffffff1673ffffffffffffffffffffffffffffffffffffffff1681526020018281526020019250505060405180910390a3505050565b60005481565b60016020528060005260406000206000915090508060000160009054906101000a900473ffffffffffffffffffffffffffffffffffffffff16908060010160009054906101000a900473ffffffffffffffffffffffffffffffffffffffff16905082565b600260009054906101000a900473ffffffffffffffffffffffffffffffffffffffff168156fe53656e6465722063616e277420616c726561647920657869737420696e2074726565a2646970667358221220e92ed87088ec0db6d5b199186fe97c094da28f43af84c96fbd1dade65541d08c64736f6c63430006000033",
  "source": "// SPDX-License-Identifier: GPL-3.0\npragma solidity ^0.6.0;\n\ncontract Tree {\n    uint256 public Count = 0;\n\n    struct User {\n        address payable inviter;\n        address payable self;\n    }\n\n    event Summary(\n        address indexed member,\n        address indexed inviter,\n        address subscription,\n        uint256 Count\n    );\n\n    event Payments(\n        address indexed from,\n        address indexed to,\n        uint256 amount,\n        uint256 Count\n    );\n\n    mapping(address => User) public tree;\n    address payable public top;\n\n    constructor() public {\n        tree[msg.sender] = User(msg.sender, msg.sender);\n        top = msg.sender;\n    }\n\n    function enter(address payable _inviter, address payable _subscription)\n        public\n        payable\n    {\n        require(msg.value >= 0.001610 ether, \"Must be at least 0.001610 ether\");\n        require(\n            tree[msg.sender].inviter == address(0),\n            \"Sender can't already exist in tree\"\n        );\n        require(tree[_inviter].self == _inviter, \"Inviter must exist\");\n        Count++;\n\n        tree[msg.sender] = User(_inviter, msg.sender);\n\n        bool sent = _subscription.send(msg.value);\n        require(sent, \"Failed to send Ether\");\n\n        emit Summary(msg.sender, _inviter, _subscription, Count);\n    }\n\n    function pay(address payable _member) public payable {\n        Count++;\n        bool sent = _member.send(msg.value);\n        require(sent, \"Failed to send Ether\");\n\n        emit Payments(msg.sender, _member, msg.value, Count);\n    }\n}\n",
  "sourcePath": "/Users/micah/Documents/paysellsite/src/contracts/Tree.sol",
  "compiler": {
    "name": "solc",
    "version": "0.6.0+commit.26b70077.Emscripten.clang"
  },
  "schemaVersion": "3.4.4",
  "updatedAt": "2023-05-14T21:34:01.573Z",
  "networkType": "ethereum",
  "devdoc": {
    "methods": {}
  },
  "userdoc": {
    "methods": {}
  }
}